{"abi":[{"type":"constructor","inputs":[],"stateMutability":"nonpayable"},{"type":"function","name":"DOMAIN_SEPARATOR","inputs":[],"outputs":[{"name":"","type":"bytes32","internalType":"bytes32"}],"stateMutability":"view"},{"type":"function","name":"authorizationState","inputs":[{"name":"","type":"address","internalType":"address"},{"name":"","type":"bytes32","internalType":"bytes32"}],"outputs":[{"name":"","type":"bool","internalType":"bool"}],"stateMutability":"view"},{"type":"function","name":"balanceOf","inputs":[{"name":"","type":"address","internalType":"address"}],"outputs":[{"name":"","type":"uint256","internalType":"uint256"}],"stateMutability":"view"},{"type":"function","name":"decimals","inputs":[],"outputs":[{"name":"","type":"uint8","internalType":"uint8"}],"stateMutability":"view"},{"type":"function","name":"mint","inputs":[{"name":"to","type":"address","internalType":"address"},{"name":"amount","type":"uint256","internalType":"uint256"}],"outputs":[],"stateMutability":"nonpayable"},{"type":"function","name":"name","inputs":[],"outputs":[{"name":"","type":"string","internalType":"string"}],"stateMutability":"view"},{"type":"function","name":"owner","inputs":[],"outputs":[{"name":"","type":"address","internalType":"address"}],"stateMutability":"view"},{"type":"function","name":"symbol","inputs":[],"outputs":[{"name":"","type":"string","internalType":"string"}],"stateMutability":"view"},{"type":"function","name":"totalSupply","inputs":[],"outputs":[{"name":"","type":"uint256","internalType":"uint256"}],"stateMutability":"view"},{"type":"function","name":"transfer","inputs":[{"name":"to","type":"address","internalType":"address"},{"name":"amount","type":"uint256","internalType":"uint256"}],"outputs":[{"name":"","type":"bool","internalType":"bool"}],"stateMutability":"nonpayable"},{"type":"function","name":"transferWithAuthorization","inputs":[{"name":"from","type":"address","internalType":"address"},{"name":"to","type":"address","internalType":"address"},{"name":"value","type":"uint256","internalType":"uint256"},{"name":"validAfter","type":"uint256","internalType":"uint256"},{"name":"validBefore","type":"uint256","internalType":"uint256"},{"name":"nonce","type":"bytes32","internalType":"bytes32"},{"name":"signature","type":"bytes","internalType":"bytes"}],"outputs":[],"stateMutability":"nonpayable"},{"type":"function","name":"transferWithAuthorization","inputs":[{"name":"from","type":"address","internalType":"address"},{"name":"to","type":"address","internalType":"address"},{"name":"value","type":"uint256","internalType":"uint256"},{"name":"validAfter","type":"uint256","internalType":"uint256"},{"name":"validBefore","type":"uint256","internalType":"uint256"},{"name":"nonce","type":"bytes32","internalType":"bytes32"},{"name":"v","type":"uint8","internalType":"uint8"},{"name":"r","type":"bytes32","internalType":"bytes32"},{"name":"s","type":"bytes32","internalType":"bytes32"}],"outputs":[],"stateMutability":"nonpayable"},{"type":"function","name":"version","inputs":[],"outputs":[{"name":"","type":"string","internalType":"string"}],"stateMutability":"view"},{"type":"event","name":"AuthorizationUsed","inputs":[{"name":"authorizer","type":"address","indexed":true,"internalType":"address"},{"name":"nonce","type":"bytes32","indexed":true,"internalType":"bytes32"}],"anonymous":false},{"type":"event","name":"Transfer","inputs":[{"name":"from","type":"address","indexed":true,"internalType":"address"},{"name":"to","type":"address","indexed":true,"internalType":"address"},{"name":"value","type":"uint256","indexed":false,"internalType":"uint256"}],"anonymous":false}],"bytecode":{"object":"0x60a060405234801561000f575f80fd5b505f80546001600160a01b0319163317905560408051808201825260048152635553444360e01b6020918201528151808301835260018152601960f91b9082015281517f8b73c3c69bb8fe3d512ecc4cf759cc79239f7b179b0ffacaa9a75d522b39400f918101919091527fd6aca1be9729c13d677335161321649cccae6a591554772516700f986f942eaa918101919091527fad7c5bef027816a800da1736444fb58a807ef4c9603b7848673f7e3a68eb14a560608201524660808201523060a082015260c00160408051601f198184030181529190528051602090910120608052608051610b3a6101115f395f818161013e01526106650152610b3a5ff3fe608060405234801561000f575f80fd5b50600436106100cb575f3560e01c806370a0823111610088578063a9059cbb11610063578063a9059cbb146101de578063cf09299514610201578063e3ee160e14610214578063e94a010214610227575f80fd5b806370a08231146101955780638da5cb5b146101b457806395d89b41146100cf575f80fd5b806306fdde03146100cf57806318160ddd14610108578063313ce5671461011f5780633644e5151461013957806340c10f191461016057806354fd4d5014610175575b5f80fd5b6100f2604051806040016040528060048152602001635553444360e01b81525081565b6040516100ff91906108e3565b60405180910390f35b61011160015481565b6040519081526020016100ff565b610127600681565b60405160ff90911681526020016100ff565b6101117f000000000000000000000000000000000000000000000000000000000000000081565b61017361016e36600461094a565b610254565b005b6100f2604051806040016040528060018152602001601960f91b81525081565b6101116101a3366004610972565b60026020525f908152604090205481565b5f546101c6906001600160a01b031681565b6040516001600160a01b0390911681526020016100ff565b6101f16101ec36600461094a565b610325565b60405190151581526020016100ff565b61017361020f366004610992565b61033b565b610173610222366004610a43565b610389565b6101f161023536600461094a565b600360209081525f928352604080842090915290825290205460ff1681565b5f546001600160a01b0316331461029f5760405162461bcd60e51b815260206004820152600a60248201526937b7363c9037bbb732b960b11b60448201526064015b60405180910390fd5b8060015f8282546102b09190610ad8565b90915550506001600160a01b0382165f90815260026020526040812080548392906102dc908490610ad8565b90915550506040518181526001600160a01b038316905f907fddf252ad1be2c89b69c2b068fc378daa952ba7f163c4a11628f55a4df523b3ef9060200160405180910390a35050565b5f6103313384846103db565b5060015b92915050565b61037f88888888888888888080601f0160208091040260200160405190810160405280939291908181526020018383808284375f920191909152506104f192505050565b5050505050505050565b604080516020810184905280820183905260f885901b6001600160f81b03191660608201528151604181830301815260619091019091526103cf8a8a8a8a8a8a876104f1565b50505050505050505050565b6001600160a01b0382166104255760405162461bcd60e51b81526020600482015260116024820152701a5b9d985b1a59081c9958da5c1a595b9d607a1b6044820152606401610296565b6001600160a01b0383165f90815260026020526040902054818110156104845760405162461bcd60e51b8152602060048201526014602482015273696e73756666696369656e742062616c616e636560601b6044820152606401610296565b6001600160a01b038085165f8181526002602052604080822086860390559286168082529083902080548601905591517fddf252ad1be2c89b69c2b068fc378daa952ba7f163c4a11628f55a4df523b3ef906104e39086815260200190565b60405180910390a350505050565b8342116105305760405162461bcd60e51b815260206004820152600d60248201526c1b9bdd081e595d081d985b1a59609a1b6044820152606401610296565b8242106105775760405162461bcd60e51b8152602060048201526015602482015274185d5d1a1bdc9a5e985d1a5bdb88195e1c1a5c9959605a1b6044820152606401610296565b6001600160a01b0387165f90815260036020908152604080832085845290915290205460ff16156105df5760405162461bcd60e51b8152602060048201526012602482015271185d5d1a1bdc9a5e985d1a5bdb881d5cd95960721b6044820152606401610296565b604080517f7c7c6cdb67a18743f49ec6fa9b35f50d52ed05cbed4cc592e13b44501c1a22676020808301919091526001600160a01b038a811683850152891660608301526080820188905260a0820187905260c0820186905260e0808301869052835180840390910181526101008301845280519082012061190160f01b6101208401527f00000000000000000000000000000000000000000000000000000000000000006101228401526101428084018290528451808503909101815261016290930190935281519101205f6106b6828561076d565b9050896001600160a01b0316816001600160a01b03161461070d5760405162461bcd60e51b8152602060048201526011602482015270696e76616c6964207369676e617475726560781b6044820152606401610296565b6001600160a01b038a165f818152600360209081526040808320898452909152808220805460ff19166001179055518792917f98de503528ee59b575ef0c0a2576a82497bfc029a5685b209e9ec333479b10a591a36103cf8a8a8a6103db565b5f81516041146107bf5760405162461bcd60e51b815260206004820152601860248201527f696e76616c6964207369676e6174757265206c656e67746800000000000000006044820152606401610296565b6020820151604083015160608401515f1a601b8110156107e7576107e4601b82610aeb565b90505b8060ff16601b14806107fc57508060ff16601c145b6108345760405162461bcd60e51b815260206004820152600960248201526834b73b30b634b2103b60b91b6044820152606401610296565b604080515f8082526020820180845289905260ff841692820192909252606081018590526080810184905260019060a0016020604051602081039080840390855afa158015610885573d5f803e3d5ffd5b5050604051601f1901519150506001600160a01b0381166108d95760405162461bcd60e51b815260206004820152600e60248201526d34b73b30b634b21039b4b3b732b960911b6044820152606401610296565b9695505050505050565b5f602080835283518060208501525f5b8181101561090f578581018301518582016040015282016108f3565b505f604082860101526040601f19601f8301168501019250505092915050565b80356001600160a01b0381168114610945575f80fd5b919050565b5f806040838503121561095b575f80fd5b6109648361092f565b946020939093013593505050565b5f60208284031215610982575f80fd5b61098b8261092f565b9392505050565b5f805f805f805f8060e0898b0312156109a9575f80fd5b6109b28961092f565b97506109c060208a0161092f565b965060408901359550606089013594506080890135935060a0890135925060c089013567ffffffffffffffff808211156109f8575f80fd5b818b0191508b601f830112610a0b575f80fd5b813581811115610a19575f80fd5b8c6020828501011115610a2a575f80fd5b6020830194508093505050509295985092959890939650565b5f805f805f805f805f6101208a8c031215610a5c575f80fd5b610a658a61092f565b9850610a7360208b0161092f565b975060408a0135965060608a0135955060808a0135945060a08a0135935060c08a013560ff81168114610aa4575f80fd5b8093505060e08a013591506101008a013590509295985092959850929598565b634e487b7160e01b5f52601160045260245ffd5b8082018082111561033557610335610ac4565b60ff818116838216019081111561033557610335610ac456fea2646970667358221220c288a1f24ce6da5fa8f47b05a037333568a7ea7fe71ccfb5ed60be5f4ff3b62764736f6c63430008180033","linkReferences":{}},"methodIdentifiers":{"DOMAIN_SEPARATOR()":"3644e515","authorizationState(address,bytes32)":"e94a0102","balanceOf(address)":"70a08231","decimals()":"313ce567","mint(address,uint256)":"40c10f19","name()":"06fdde03","owner()":"8da5cb5b","symbol()":"95d89b41","totalSupply()":"18160ddd","transfer(address,uint256)":"a9059cbb","transferWithAuthorization(address,address,uint256,uint256,uint256,bytes32,bytes)":"cf092995","transferWithAuthorization(address,address,uint256,uint256,uint256,bytes32,uint8,bytes32,bytes32)":"e3ee160e","version()":"54fd4d50"},"id":0}